:020000040000FA
:020000000528D1
:040002000034003492
:06000A008312031307102E
:100010000714031383160914031783168812831613
:100020000313880183120313081088100811881124
:1000300008128812081388130330A70075200918C6
:100040001E2830201E282008A3002108A400220812
:10005000A500A50B2928A40B2728A30B25280800F9
:10006000352040204D205B2008000230A000833066
:10007000A100FF30A2000714071023200714080076
:100080000330A0008330A100FF30A2008801692066
:10009000A70B47280330A70008000230A0008330D8
:1000A000A100FF30A200880169206F20A70B54280F
:1000B0000330A70008000130A0008330A100FF300A
:1000C000A200880181208720A70B62280330A700A7
:1000D00008000314880D2320881F6A2808000310D5
:1000E000880C2320081C702808000A30A0008330E8
:1000F000A100FF30A200FF308800232088012320C8
:1001000008000314880D2320881F8128080003108D
:0A011000880C232008188728080037
:02400E00F12F90
:00000001FF
