:020000040000FA
:020000000528D1
:040002000034003492
:06000A008316031307102A
:1000100083128312031307100313831609140317A3
:1000200083168812831603138801831203130810A2
:1000300088100811881108128812081388130330D9
:10004000A700812009182128332021282008A30097
:100050002108A4002208A500A50B2C28A40B2A28FF
:10006000A30B2828080038204920562064200800C7
:100070000230A0008330A100FF30A20083120313DE
:10008000071083120313071426208312031307108B
:1000900008000330A0008330A100FF30A2008801D7
:1000A0007220A70B50280330A70008000230A000E0
:1000B0008330A100FF30A200880172207A20A70BB4
:1000C0005D280330A70008000130A0008330A100A4
:1000D000FF30A20088018D209320A70B6B280330EE
:1000E000A7000800081C0314880D26200310881F91
:1000F000742808000310880C26200310081C7B2895
:1001000008000A30A0008330A100FF30A200FF30B9
:10011000880026208801262008000314880D262048
:10012000881F8D2808000310880C262008189328A3
:020130000800C5
:02400E00F12F90
:00000001FF
